{
  "_format": "hh3-artifact-1",
  "contractName": "StreakPayment",
  "sourceName": "contracts/StreakPayment.sol",
  "abi": [
    {
      "inputs": [
        {
          "internalType": "address",
          "name": "_usdc",
          "type": "address"
        },
        {
          "internalType": "address",
          "name": "_streakWallet",
          "type": "address"
        }
      ],
      "stateMutability": "nonpayable",
      "type": "constructor"
    },
    {
      "inputs": [
        {
          "internalType": "address",
          "name": "owner",
          "type": "address"
        }
      ],
      "name": "OwnableInvalidOwner",
      "type": "error"
    },
    {
      "inputs": [
        {
          "internalType": "address",
          "name": "account",
          "type": "address"
        }
      ],
      "name": "OwnableUnauthorizedAccount",
      "type": "error"
    },
    {
      "anonymous": false,
      "inputs": [
        {
          "indexed": true,
          "internalType": "address",
          "name": "previousOwner",
          "type": "address"
        },
        {
          "indexed": true,
          "internalType": "address",
          "name": "newOwner",
          "type": "address"
        }
      ],
      "name": "OwnershipTransferred",
      "type": "event"
    },
    {
      "anonymous": false,
      "inputs": [
        {
          "indexed": true,
          "internalType": "address",
          "name": "merchant",
          "type": "address"
        },
        {
          "indexed": true,
          "internalType": "address",
          "name": "buyer",
          "type": "address"
        },
        {
          "indexed": false,
          "internalType": "uint256",
          "name": "totalAmount",
          "type": "uint256"
        },
        {
          "indexed": false,
          "internalType": "uint256",
          "name": "merchantAmount",
          "type": "uint256"
        },
        {
          "indexed": false,
          "internalType": "uint256",
          "name": "streakFee",
          "type": "uint256"
        }
      ],
      "name": "PaymentProcessed",
      "type": "event"
    },
    {
      "inputs": [],
      "name": "feeRate",
      "outputs": [
        {
          "internalType": "uint256",
          "name": "",
          "type": "uint256"
        }
      ],
      "stateMutability": "view",
      "type": "function"
    },
    {
      "inputs": [],
      "name": "owner",
      "outputs": [
        {
          "internalType": "address",
          "name": "",
          "type": "address"
        }
      ],
      "stateMutability": "view",
      "type": "function"
    },
    {
      "inputs": [
        {
          "internalType": "address",
          "name": "merchant",
          "type": "address"
        },
        {
          "internalType": "uint256",
          "name": "totalPrice",
          "type": "uint256"
        }
      ],
      "name": "pay",
      "outputs": [],
      "stateMutability": "nonpayable",
      "type": "function"
    },
    {
      "inputs": [],
      "name": "renounceOwnership",
      "outputs": [],
      "stateMutability": "nonpayable",
      "type": "function"
    },
    {
      "inputs": [
        {
          "internalType": "uint256",
          "name": "_feeRate",
          "type": "uint256"
        }
      ],
      "name": "setFeeRate",
      "outputs": [],
      "stateMutability": "nonpayable",
      "type": "function"
    },
    {
      "inputs": [
        {
          "internalType": "address",
          "name": "_wallet",
          "type": "address"
        }
      ],
      "name": "setStreakWallet",
      "outputs": [],
      "stateMutability": "nonpayable",
      "type": "function"
    },
    {
      "inputs": [],
      "name": "streakWallet",
      "outputs": [
        {
          "internalType": "address",
          "name": "",
          "type": "address"
        }
      ],
      "stateMutability": "view",
      "type": "function"
    },
    {
      "inputs": [
        {
          "internalType": "address",
          "name": "newOwner",
          "type": "address"
        }
      ],
      "name": "transferOwnership",
      "outputs": [],
      "stateMutability": "nonpayable",
      "type": "function"
    },
    {
      "inputs": [],
      "name": "usdc",
      "outputs": [
        {
          "internalType": "contract IERC20",
          "name": "",
          "type": "address"
        }
      ],
      "stateMutability": "view",
      "type": "function"
    }
  ],
  "bytecode": "0x608060405260fa600355348015610014575f5ffd5b506040516107e63803806107e6833981016040819052610033916100fd565b338061005857604051631e4fbdf760e01b81525f600482015260240160405180910390fd5b61006181610093565b50600180546001600160a01b039384166001600160a01b0319918216179091556002805492909316911617905561012e565b5f80546001600160a01b038381166001600160a01b0319831681178455604051919092169283917f8be0079c531659141344cd1fd0a4f28419497f9722a3daafe3b4186f6b6457e09190a35050565b80516001600160a01b03811681146100f8575f5ffd5b919050565b5f5f6040838503121561010e575f5ffd5b610117836100e2565b9150610125602084016100e2565b90509250929050565b6106ab8061013b5f395ff3fe608060405234801561000f575f5ffd5b5060043610610090575f3560e01c80638da5cb5b116100635780638da5cb5b146100f4578063978bbdb9146101045780639fcca4c71461011b578063c40768761461012e578063f2fde38b14610141575f5ffd5b80633e413bee1461009457806345596e2e146100c457806358050cd4146100d9578063715018a6146100ec575b5f5ffd5b6001546100a7906001600160a01b031681565b6040516001600160a01b0390911681526020015b60405180910390f35b6100d76100d2366004610579565b610154565b005b6100d76100e73660046105ab565b6101a1565b6100d7610213565b5f546001600160a01b03166100a7565b61010d60035481565b6040519081526020016100bb565b6002546100a7906001600160a01b031681565b6100d761013c3660046105cb565b610226565b6100d761014f3660046105ab565b6104c1565b61015c6104fe565b6101f481111561019c5760405162461bcd60e51b81526020600482015260066024820152654d617820352560d01b60448201526064015b60405180910390fd5b600355565b6101a96104fe565b6001600160a01b0381166101f15760405162461bcd60e51b815260206004820152600f60248201526e496e76616c6964206164647265737360881b6044820152606401610193565b600280546001600160a01b0319166001600160a01b0392909216919091179055565b61021b6104fe565b6102245f61052a565b565b5f81116102755760405162461bcd60e51b815260206004820152601760248201527f416d6f756e74206d75737420626520706f7369746976650000000000000000006044820152606401610193565b6001600160a01b0382166102be5760405162461bcd60e51b815260206004820152601060248201526f125b9d985b1a59081b595c98da185b9d60821b6044820152606401610193565b5f612710600354836102d09190610607565b6102da9190610624565b90505f6102e78284610643565b6001546040516323b872dd60e01b81523360048201526001600160a01b038781166024830152604482018490529293509116906323b872dd906064016020604051808303815f875af115801561033f573d5f5f3e3d5ffd5b505050506040513d601f19601f820116820180604052508101906103639190610656565b6103af5760405162461bcd60e51b815260206004820152601b60248201527f5472616e7366657220746f206d65726368616e74206661696c656400000000006044820152606401610193565b6001546002546040516323b872dd60e01b81523360048201526001600160a01b039182166024820152604481018590529116906323b872dd906064016020604051808303815f875af1158015610407573d5f5f3e3d5ffd5b505050506040513d601f19601f8201168201806040525081019061042b9190610656565b61046d5760405162461bcd60e51b8152602060048201526013602482015272151c985b9cd9995c881999594819985a5b1959606a1b6044820152606401610193565b604080518481526020810183905290810183905233906001600160a01b038616907f72dd19d9bd6e3cdbe36ecaefc0cdd05baf431df4fbb3957e3781184ce70e394b9060600160405180910390a350505050565b6104c96104fe565b6001600160a01b0381166104f257604051631e4fbdf760e01b81525f6004820152602401610193565b6104fb8161052a565b50565b5f546001600160a01b031633146102245760405163118cdaa760e01b8152336004820152602401610193565b5f80546001600160a01b038381166001600160a01b0319831681178455604051919092169283917f8be0079c531659141344cd1fd0a4f28419497f9722a3daafe3b4186f6b6457e09190a35050565b5f60208284031215610589575f5ffd5b5035919050565b80356001600160a01b03811681146105a6575f5ffd5b919050565b5f602082840312156105bb575f5ffd5b6105c482610590565b9392505050565b5f5f604083850312156105dc575f5ffd5b6105e583610590565b946020939093013593505050565b634e487b7160e01b5f52601160045260245ffd5b808202811582820484141761061e5761061e6105f3565b92915050565b5f8261063e57634e487b7160e01b5f52601260045260245ffd5b500490565b8181038181111561061e5761061e6105f3565b5f60208284031215610666575f5ffd5b815180151581146105c4575f5ffdfea264697066735822122073ea7b0b42390722438f39666863b8d546ecf29740b10e7dc1eb13938cd798ee64736f6c634300081c0033",
  "linkReferences": {},
  "deployedLinkReferences": {},
  "immutableReferences": {},
  "inputSourceName": "project/contracts/StreakPayment.sol",
  "buildInfoId": "solc-0_8_28-1b229e67de96036e72f389b1955f872e843ee508"
}